{
  "contractName": "AttendanceManager",
  "abi": [
    {
      "inputs": [
        {
          "internalType": "address",
          "name": "admin",
          "type": "address"
        },
        {
          "internalType": "bytes32",
          "name": "_setupSecretHash",
          "type": "bytes32"
        }
      ],
      "stateMutability": "nonpayable",
      "type": "constructor"
    },
    {
      "anonymous": false,
      "inputs": [
        {
          "indexed": true,
          "internalType": "uint256",
          "name": "sessionId",
          "type": "uint256"
        },
        {
          "indexed": true,
          "internalType": "address",
          "name": "student",
          "type": "address"
        },
        {
          "indexed": false,
          "internalType": "uint256",
          "name": "timestamp",
          "type": "uint256"
        }
      ],
      "name": "AttendanceMarked",
      "type": "event"
    },
    {
      "anonymous": false,
      "inputs": [
        {
          "indexed": true,
          "internalType": "bytes32",
          "name": "role",
          "type": "bytes32"
        },
        {
          "indexed": true,
          "internalType": "bytes32",
          "name": "previousAdminRole",
          "type": "bytes32"
        },
        {
          "indexed": true,
          "internalType": "bytes32",
          "name": "newAdminRole",
          "type": "bytes32"
        }
      ],
      "name": "RoleAdminChanged",
      "type": "event"
    },
    {
      "anonymous": false,
      "inputs": [
        {
          "indexed": true,
          "internalType": "bytes32",
          "name": "role",
          "type": "bytes32"
        },
        {
          "indexed": true,
          "internalType": "address",
          "name": "account",
          "type": "address"
        },
        {
          "indexed": true,
          "internalType": "address",
          "name": "sender",
          "type": "address"
        }
      ],
      "name": "RoleGranted",
      "type": "event"
    },
    {
      "anonymous": false,
      "inputs": [
        {
          "indexed": true,
          "internalType": "bytes32",
          "name": "role",
          "type": "bytes32"
        },
        {
          "indexed": true,
          "internalType": "address",
          "name": "account",
          "type": "address"
        },
        {
          "indexed": true,
          "internalType": "address",
          "name": "sender",
          "type": "address"
        }
      ],
      "name": "RoleRevoked",
      "type": "event"
    },
    {
      "anonymous": false,
      "inputs": [
        {
          "indexed": true,
          "internalType": "uint256",
          "name": "sessionId",
          "type": "uint256"
        },
        {
          "indexed": false,
          "internalType": "uint256",
          "name": "timestamp",
          "type": "uint256"
        },
        {
          "indexed": false,
          "internalType": "string",
          "name": "locationHash",
          "type": "string"
        }
      ],
      "name": "SessionActivated",
      "type": "event"
    },
    {
      "anonymous": false,
      "inputs": [
        {
          "indexed": true,
          "internalType": "uint256",
          "name": "sessionId",
          "type": "uint256"
        },
        {
          "indexed": false,
          "internalType": "uint256",
          "name": "timestamp",
          "type": "uint256"
        }
      ],
      "name": "SessionClosed",
      "type": "event"
    },
    {
      "anonymous": false,
      "inputs": [
        {
          "indexed": true,
          "internalType": "uint256",
          "name": "sessionId",
          "type": "uint256"
        },
        {
          "indexed": false,
          "internalType": "string",
          "name": "courseName",
          "type": "string"
        },
        {
          "indexed": false,
          "internalType": "address",
          "name": "professor",
          "type": "address"
        }
      ],
      "name": "SessionOpened",
      "type": "event"
    },
    {
      "inputs": [],
      "name": "ADMIN_ROLE",
      "outputs": [
        {
          "internalType": "bytes32",
          "name": "",
          "type": "bytes32"
        }
      ],
      "stateMutability": "view",
      "type": "function",
      "constant": true
    },
    {
      "inputs": [],
      "name": "DEFAULT_ADMIN_ROLE",
      "outputs": [
        {
          "internalType": "bytes32",
          "name": "",
          "type": "bytes32"
        }
      ],
      "stateMutability": "view",
      "type": "function",
      "constant": true
    },
    {
      "inputs": [],
      "name": "PROFESSOR_ROLE",
      "outputs": [
        {
          "internalType": "bytes32",
          "name": "",
          "type": "bytes32"
        }
      ],
      "stateMutability": "view",
      "type": "function",
      "constant": true
    },
    {
      "inputs": [],
      "name": "STUDENT_ROLE",
      "outputs": [
        {
          "internalType": "bytes32",
          "name": "",
          "type": "bytes32"
        }
      ],
      "stateMutability": "view",
      "type": "function",
      "constant": true
    },
    {
      "inputs": [
        {
          "internalType": "address",
          "name": "",
          "type": "address"
        }
      ],
      "name": "blockedUsers",
      "outputs": [
        {
          "internalType": "bool",
          "name": "",
          "type": "bool"
        }
      ],
      "stateMutability": "view",
      "type": "function",
      "constant": true
    },
    {
      "inputs": [
        {
          "internalType": "bytes32",
          "name": "role",
          "type": "bytes32"
        }
      ],
      "name": "getRoleAdmin",
      "outputs": [
        {
          "internalType": "bytes32",
          "name": "",
          "type": "bytes32"
        }
      ],
      "stateMutability": "view",
      "type": "function",
      "constant": true
    },
    {
      "inputs": [],
      "name": "gpsSigner",
      "outputs": [
        {
          "internalType": "address",
          "name": "",
          "type": "address"
        }
      ],
      "stateMutability": "view",
      "type": "function",
      "constant": true
    },
    {
      "inputs": [
        {
          "internalType": "bytes32",
          "name": "role",
          "type": "bytes32"
        },
        {
          "internalType": "address",
          "name": "account",
          "type": "address"
        }
      ],
      "name": "grantRole",
      "outputs": [],
      "stateMutability": "nonpayable",
      "type": "function"
    },
    {
      "inputs": [
        {
          "internalType": "address",
          "name": "",
          "type": "address"
        },
        {
          "internalType": "uint256",
          "name": "",
          "type": "uint256"
        }
      ],
      "name": "hasCheckedIn",
      "outputs": [
        {
          "internalType": "bool",
          "name": "",
          "type": "bool"
        }
      ],
      "stateMutability": "view",
      "type": "function",
      "constant": true
    },
    {
      "inputs": [
        {
          "internalType": "bytes32",
          "name": "role",
          "type": "bytes32"
        },
        {
          "internalType": "address",
          "name": "account",
          "type": "address"
        }
      ],
      "name": "hasRole",
      "outputs": [
        {
          "internalType": "bool",
          "name": "",
          "type": "bool"
        }
      ],
      "stateMutability": "view",
      "type": "function",
      "constant": true
    },
    {
      "inputs": [
        {
          "internalType": "bytes32",
          "name": "role",
          "type": "bytes32"
        },
        {
          "internalType": "address",
          "name": "account",
          "type": "address"
        }
      ],
      "name": "renounceRole",
      "outputs": [],
      "stateMutability": "nonpayable",
      "type": "function"
    },
    {
      "inputs": [
        {
          "internalType": "bytes32",
          "name": "role",
          "type": "bytes32"
        },
        {
          "internalType": "address",
          "name": "account",
          "type": "address"
        }
      ],
      "name": "revokeRole",
      "outputs": [],
      "stateMutability": "nonpayable",
      "type": "function"
    },
    {
      "inputs": [
        {
          "internalType": "uint256",
          "name": "",
          "type": "uint256"
        },
        {
          "internalType": "uint256",
          "name": "",
          "type": "uint256"
        }
      ],
      "name": "sessionAttendees",
      "outputs": [
        {
          "internalType": "address",
          "name": "",
          "type": "address"
        }
      ],
      "stateMutability": "view",
      "type": "function",
      "constant": true
    },
    {
      "inputs": [],
      "name": "sessionCount",
      "outputs": [
        {
          "internalType": "uint256",
          "name": "",
          "type": "uint256"
        }
      ],
      "stateMutability": "view",
      "type": "function",
      "constant": true
    },
    {
      "inputs": [
        {
          "internalType": "uint256",
          "name": "",
          "type": "uint256"
        }
      ],
      "name": "sessions",
      "outputs": [
        {
          "internalType": "uint256",
          "name": "id",
          "type": "uint256"
        },
        {
          "internalType": "string",
          "name": "courseId",
          "type": "string"
        },
        {
          "internalType": "string",
          "name": "courseName",
          "type": "string"
        },
        {
          "internalType": "address",
          "name": "professor",
          "type": "address"
        },
        {
          "internalType": "uint128",
          "name": "openedAt",
          "type": "uint128"
        },
        {
          "internalType": "uint128",
          "name": "closedAt",
          "type": "uint128"
        },
        {
          "internalType": "bool",
          "name": "isOpen",
          "type": "bool"
        },
        {
          "internalType": "bool",
          "name": "isActivated",
          "type": "bool"
        },
        {
          "internalType": "uint256",
          "name": "duration",
          "type": "uint256"
        },
        {
          "internalType": "string",
          "name": "locationHash",
          "type": "string"
        }
      ],
      "stateMutability": "view",
      "type": "function",
      "constant": true
    },
    {
      "inputs": [],
      "name": "setupSecretHash",
      "outputs": [
        {
          "internalType": "bytes32",
          "name": "",
          "type": "bytes32"
        }
      ],
      "stateMutability": "view",
      "type": "function",
      "constant": true
    },
    {
      "inputs": [
        {
          "internalType": "bytes4",
          "name": "interfaceId",
          "type": "bytes4"
        }
      ],
      "name": "supportsInterface",
      "outputs": [
        {
          "internalType": "bool",
          "name": "",
          "type": "bool"
        }
      ],
      "stateMutability": "view",
      "type": "function",
      "constant": true
    },
    {
      "inputs": [
        {
          "internalType": "address",
          "name": "",
          "type": "address"
        }
      ],
      "name": "userNames",
      "outputs": [
        {
          "internalType": "string",
          "name": "",
          "type": "string"
        }
      ],
      "stateMutability": "view",
      "type": "function",
      "constant": true
    },
    {
      "inputs": [
        {
          "internalType": "address",
          "name": "",
          "type": "address"
        }
      ],
      "name": "userRole",
      "outputs": [
        {
          "internalType": "string",
          "name": "",
          "type": "string"
        }
      ],
      "stateMutability": "view",
      "type": "function",
      "constant": true
    },
    {
      "inputs": [
        {
          "internalType": "string",
          "name": "name",
          "type": "string"
        },
        {
          "internalType": "string",
          "name": "role",
          "type": "string"
        },
        {
          "internalType": "string",
          "name": "secret",
          "type": "string"
        }
      ],
      "name": "onboard",
      "outputs": [],
      "stateMutability": "nonpayable",
      "type": "function"
    },
    {
      "inputs": [
        {
          "internalType": "address",
          "name": "_signer",
          "type": "address"
        }
      ],
      "name": "setGpsSigner",
      "outputs": [],
      "stateMutability": "nonpayable",
      "type": "function"
    },
    {
      "inputs": [
        {
          "internalType": "address",
          "name": "user",
          "type": "address"
        },
        {
          "internalType": "string",
          "name": "name",
          "type": "string"
        }
      ],
      "name": "setUserName",
      "outputs": [],
      "stateMutability": "nonpayable",
      "type": "function"
    },
    {
      "inputs": [
        {
          "internalType": "address",
          "name": "user",
          "type": "address"
        },
        {
          "internalType": "bool",
          "name": "blocked",
          "type": "bool"
        }
      ],
      "name": "setBlocked",
      "outputs": [],
      "stateMutability": "nonpayable",
      "type": "function"
    },
    {
      "inputs": [
        {
          "internalType": "address",
          "name": "user",
          "type": "address"
        },
        {
          "internalType": "string",
          "name": "name",
          "type": "string"
        },
        {
          "internalType": "string",
          "name": "role",
          "type": "string"
        }
      ],
      "name": "provisionUser",
      "outputs": [],
      "stateMutability": "nonpayable",
      "type": "function"
    },
    {
      "inputs": [
        {
          "internalType": "string",
          "name": "courseId",
          "type": "string"
        },
        {
          "internalType": "string",
          "name": "courseName",
          "type": "string"
        },
        {
          "internalType": "uint256",
          "name": "duration",
          "type": "uint256"
        }
      ],
      "name": "openSession",
      "outputs": [
        {
          "internalType": "uint256",
          "name": "sessionId",
          "type": "uint256"
        }
      ],
      "stateMutability": "nonpayable",
      "type": "function"
    },
    {
      "inputs": [
        {
          "internalType": "uint256",
          "name": "sessionId",
          "type": "uint256"
        },
        {
          "internalType": "string",
          "name": "locationHash",
          "type": "string"
        }
      ],
      "name": "activateSession",
      "outputs": [],
      "stateMutability": "nonpayable",
      "type": "function"
    },
    {
      "inputs": [
        {
          "internalType": "uint256",
          "name": "sessionId",
          "type": "uint256"
        }
      ],
      "name": "closeSession",
      "outputs": [],
      "stateMutability": "nonpayable",
      "type": "function"
    },
    {
      "inputs": [
        {
          "internalType": "uint256",
          "name": "sessionId",
          "type": "uint256"
        },
        {
          "internalType": "bytes",
          "name": "",
          "type": "bytes"
        }
      ],
      "name": "checkIn",
      "outputs": [],
      "stateMutability": "nonpayable",
      "type": "function"
    },
    {
      "inputs": [
        {
          "internalType": "uint256",
          "name": "id",
          "type": "uint256"
        }
      ],
      "name": "getSession",
      "outputs": [
        {
          "components": [
            {
              "internalType": "uint256",
              "name": "id",
              "type": "uint256"
            },
            {
              "internalType": "string",
              "name": "courseId",
              "type": "string"
            },
            {
              "internalType": "string",
              "name": "courseName",
              "type": "string"
            },
            {
              "internalType": "address",
              "name": "professor",
              "type": "address"
            },
            {
              "internalType": "uint128",
              "name": "openedAt",
              "type": "uint128"
            },
            {
              "internalType": "uint128",
              "name": "closedAt",
              "type": "uint128"
            },
            {
              "internalType": "bool",
              "name": "isOpen",
              "type": "bool"
            },
            {
              "internalType": "bool",
              "name": "isActivated",
              "type": "bool"
            },
            {
              "internalType": "uint256",
              "name": "duration",
              "type": "uint256"
            },
            {
              "internalType": "string",
              "name": "locationHash",
              "type": "string"
            }
          ],
          "internalType": "struct AttendanceManager.Session",
          "name": "",
          "type": "tuple"
        }
      ],
      "stateMutability": "view",
      "type": "function",
      "constant": true
    },
    {
      "inputs": [],
      "name": "getAllSessions",
      "outputs": [
        {
          "components": [
            {
              "internalType": "uint256",
              "name": "id",
              "type": "uint256"
            },
            {
              "internalType": "string",
              "name": "courseId",
              "type": "string"
            },
            {
              "internalType": "string",
              "name": "courseName",
              "type": "string"
            },
            {
              "internalType": "address",
              "name": "professor",
              "type": "address"
            },
            {
              "internalType": "uint128",
              "name": "openedAt",
              "type": "uint128"
            },
            {
              "internalType": "uint128",
              "name": "closedAt",
              "type": "uint128"
            },
            {
              "internalType": "bool",
              "name": "isOpen",
              "type": "bool"
            },
            {
              "internalType": "bool",
              "name": "isActivated",
              "type": "bool"
            },
            {
              "internalType": "uint256",
              "name": "duration",
              "type": "uint256"
            },
            {
              "internalType": "string",
              "name": "locationHash",
              "type": "string"
            }
          ],
          "internalType": "struct AttendanceManager.Session[]",
          "name": "",
          "type": "tuple[]"
        }
      ],
      "stateMutability": "view",
      "type": "function",
      "constant": true
    },
    {
      "inputs": [],
      "name": "getActiveSessions",
      "outputs": [
        {
          "internalType": "uint256[]",
          "name": "",
          "type": "uint256[]"
        }
      ],
      "stateMutability": "view",
      "type": "function",
      "constant": true
    },
    {
      "inputs": [
        {
          "internalType": "uint256",
          "name": "sessionId",
          "type": "uint256"
        }
      ],
      "name": "getSessionAttendees",
      "outputs": [
        {
          "internalType": "address[]",
          "name": "",
          "type": "address[]"
        }
      ],
      "stateMutability": "view",
      "type": "function",
      "constant": true
    },
    {
      "inputs": [
        {
          "internalType": "address",
          "name": "student",
          "type": "address"
        }
      ],
      "name": "getStudentAttendance",
      "outputs": [
        {
          "internalType": "uint256[]",
          "name": "",
          "type": "uint256[]"
        }
      ],
      "stateMutability": "view",
      "type": "function",
      "constant": true
    },
    {
      "inputs": [
        {
          "internalType": "address",
          "name": "student",
          "type": "address"
        }
      ],
      "name": "getAttendanceRate",
      "outputs": [
        {
          "internalType": "uint256",
          "name": "",
          "type": "uint256"
        }
      ],
      "stateMutability": "view",
      "type": "function",
      "constant": true
    },
    {
      "inputs": [],
      "name": "getRegisteredStudents",
      "outputs": [
        {
          "internalType": "address[]",
          "name": "",
          "type": "address[]"
        }
      ],
      "stateMutability": "view",
      "type": "function",
      "constant": true
    },
    {
      "inputs": [],
      "name": "getRegisteredProfessors",
      "outputs": [
        {
          "internalType": "address[]",
          "name": "",
          "type": "address[]"
        }
      ],
      "stateMutability": "view",
      "type": "function",
      "constant": true
    }
  ],
  "bytecode": "0x60806040523480156200001157600080fd5b5060405162002f4e38038062002f4e8339810160408190526200003491620001a9565b6200004160008362000108565b6200006d7fdf8b4c520ffe197c5343c6f5aec59570151ef9a492f2c624fd45ddde6135ec428362000108565b604080518082018252600c81526b29bcb9ba32b69020b236b4b760a11b6020808301919091526001600160a01b038516600090815260079091529190912090620000b890826200028a565b50604080518082018252600581526420a226a4a760d91b6020808301919091526001600160a01b038516600090815260089091529190912090620000fd90826200028a565b506002555062000356565b6000828152602081815260408083206001600160a01b038516845290915290205460ff16620001a5576000828152602081815260408083206001600160a01b03851684529091529020805460ff19166001179055620001643390565b6001600160a01b0316816001600160a01b0316837f2f8788117e7eff1d82e926ec794901d17c78024a50270940304540a733656f0d60405160405180910390a45b5050565b60008060408385031215620001bd57600080fd5b82516001600160a01b0381168114620001d557600080fd5b6020939093015192949293505050565b634e487b7160e01b600052604160045260246000fd5b600181811c908216806200021057607f821691505b6020821081036200023157634e487b7160e01b600052602260045260246000fd5b50919050565b601f8211156200028557600081815260208120601f850160051c81016020861015620002605750805b601f850160051c820191505b8181101562000281578281556001016200026c565b5050505b505050565b81516001600160401b03811115620002a657620002a6620001e5565b620002be81620002b78454620001fb565b8462000237565b602080601f831160018114620002f65760008415620002dd5750858301515b600019600386901b1c1916600185901b17855562000281565b600085815260208120601f198616915b82811015620003275788860151825594840194600190910190840162000306565b5085821015620003465787850151600019600388901b60f8161c191681555b5050505050600190811b01905550565b612be880620003666000396000f3fe608060405234801561001057600080fd5b506004361061021b5760003560e01c806375b238fc11610125578063a3bfdf47116100ad578063c9151d441161007c578063c9151d44146104f5578063d547741f14610508578063e7048cfa1461051b578063f7be43fb1461052e578063f8f22e151461054357600080fd5b8063a3bfdf471461048c578063a6ea10511461049f578063b1674d67146104cd578063c81cf771146104e057600080fd5b806391d14854116100f457806391d14854146104435780639218886014610456578063a008180514610469578063a00a557f14610471578063a217fddf1461048457600080fd5b806375b238fc146103c75780637f281635146103dc57806383c4b7a3146103ef578063887495bd1461041857600080fd5b806336568abe116101a85780634e67e2f4116101775780634e67e2f414610363578063534f56801461037657806354ca06b414610396578063654e22f5146103ab57806373cd8336146103be57600080fd5b806336568abe146102fa5780633af2d5e71461030d578063402ff0db146103305780634b5a70231461035057600080fd5b806320667904116101ef5780632066790414610294578063248a9ca3146102a95780632517ef3f146102cc5780632dde7c67146102df5780632f2ff15d146102e757600080fd5b80620af2a11461022057806301ffc9a71461023557806314e1bf021461025d5780631ca19bba1461027d575b600080fd5b61023361022e366004612153565b610556565b005b61024861024336600461218f565b61059a565b60405190151581526020015b60405180910390f35b61027061026b3660046121b9565b6105d1565b60405161025491906121d4565b61028660025481565b604051908152602001610254565b61029c61063d565b6040516102549190612218565b6102866102b7366004612259565b60009081526020819052604090206001015490565b61029c6102da366004612259565b61069f565b61029c61070a565b6102336102f5366004612272565b61076a565b610233610308366004612272565b610794565b61024861031b3660046121b9565b60096020526000908152604090205460ff1681565b61034361033e366004612259565b610817565b60405161025491906123d1565b61023361035e3660046121b9565b610a68565b6102866103713660046121b9565b610aa3565b6103896103843660046121b9565b610aef565b60405161025491906123e4565b61039e610b89565b60405161025491906123f7565b6102866103b93660046124a2565b610e88565b61028660015481565b610286600080516020612b7383398151915281565b6103896103ea3660046121b9565b6110d4565b6104026103fd366004612259565b6110ed565b6040516102549a99989796959493929190612516565b60035461042b906001600160a01b031681565b6040516001600160a01b039091168152602001610254565b610248610451366004612272565b6112f8565b6102336104643660046125a8565b611321565b6102706114cd565b61023361047f366004612629565b6116c5565b610286600081565b61023361049a366004612259565b611847565b6102486104ad366004612675565b600660209081526000928352604080842090915290825290205460ff1681565b6102336104db366004612629565b61191a565b610286600080516020612b5383398151915281565b61042b61050336600461269f565b611a86565b610233610516366004612272565b611abe565b6102336105293660046126c1565b611ae3565b610286600080516020612b9383398151915281565b61023361055136600461275b565b611da5565b600080516020612b7383398151915261056e81611de7565b506001600160a01b03919091166000908152600960205260409020805460ff1916911515919091179055565b60006001600160e01b03198216637965db0b60e01b14806105cb57506301ffc9a760e01b6001600160e01b03198316145b92915050565b6001600160a01b0381166000908152600a602090815260409182902080548351818402810184019094528084526060939283018282801561063157602002820191906000526020600020905b81548152602001906001019080831161061d575b50505050509050919050565b6060600d80548060200260200160405190810160405280929190818152602001828054801561069557602002820191906000526020600020905b81546001600160a01b03168152600190910190602001808311610677575b5050505050905090565b60008181526005602090815260409182902080548351818402810184019094528084526060939283018282801561063157602002820191906000526020600020905b81546001600160a01b031681526001909101906020018083116106e15750505050509050919050565b6060600c805480602002602001604051908101604052809291908181526020018280548015610695576020028201919060005260206000209081546001600160a01b03168152600190910190602001808311610677575050505050905090565b60008281526020819052604090206001015461078581611de7565b61078f8383611df4565b505050565b6001600160a01b03811633146108095760405162461bcd60e51b815260206004820152602f60248201527f416363657373436f6e74726f6c3a2063616e206f6e6c792072656e6f756e636560448201526e103937b632b9903337b91039b2b63360891b60648201526084015b60405180910390fd5b6108138282611e78565b5050565b61081f6120e4565b60046000838152602001908152602001600020604051806101400160405290816000820154815260200160018201805461085890612795565b80601f016020809104026020016040519081016040528092919081815260200182805461088490612795565b80156108d15780601f106108a6576101008083540402835291602001916108d1565b820191906000526020600020905b8154815290600101906020018083116108b457829003601f168201915b505050505081526020016002820180546108ea90612795565b80601f016020809104026020016040519081016040528092919081815260200182805461091690612795565b80156109635780601f1061093857610100808354040283529160200191610963565b820191906000526020600020905b81548152906001019060200180831161094657829003601f168201915b505050918352505060038201546001600160a01b0316602082015260048201546001600160801b038082166040840152600160801b909104166060820152600582015460ff8082161515608084015261010090910416151560a0820152600682015460c082015260078201805460e0909201916109df90612795565b80601f0160208091040260200160405190810160405280929190818152602001828054610a0b90612795565b8015610a585780601f10610a2d57610100808354040283529160200191610a58565b820191906000526020600020905b815481529060010190602001808311610a3b57829003601f168201915b5050505050815250509050919050565b600080516020612b73833981519152610a8081611de7565b50600380546001600160a01b0319166001600160a01b0392909216919091179055565b6000600154600003610ab757506000919050565b6001600160a01b0382166000908152600a6020526040902054600154610ade8260646127df565b610ae891906127f6565b9392505050565b60086020526000908152604090208054610b0890612795565b80601f0160208091040260200160405190810160405280929190818152602001828054610b3490612795565b8015610b815780601f10610b5657610100808354040283529160200191610b81565b820191906000526020600020905b815481529060010190602001808311610b6457829003601f168201915b505050505081565b600b5460609060009067ffffffffffffffff811115610baa57610baa612818565b604051908082528060200260200182016040528015610be357816020015b610bd06120e4565b815260200190600190039081610bc85790505b50905060005b600b54811015610e825760046000600b8381548110610c0a57610c0a61282e565b906000526020600020015481526020019081526020016000206040518061014001604052908160008201548152602001600182018054610c4990612795565b80601f0160208091040260200160405190810160405280929190818152602001828054610c7590612795565b8015610cc25780601f10610c9757610100808354040283529160200191610cc2565b820191906000526020600020905b815481529060010190602001808311610ca557829003601f168201915b50505050508152602001600282018054610cdb90612795565b80601f0160208091040260200160405190810160405280929190818152602001828054610d0790612795565b8015610d545780601f10610d2957610100808354040283529160200191610d54565b820191906000526020600020905b815481529060010190602001808311610d3757829003601f168201915b505050918352505060038201546001600160a01b0316602082015260048201546001600160801b038082166040840152600160801b909104166060820152600582015460ff8082161515608084015261010090910416151560a0820152600682015460c082015260078201805460e090920191610dd090612795565b80601f0160208091040260200160405190810160405280929190818152602001828054610dfc90612795565b8015610e495780601f10610e1e57610100808354040283529160200191610e49565b820191906000526020600020905b815481529060010190602001808311610e2c57829003601f168201915b505050505081525050828281518110610e6457610e6461282e565b60200260200101819052508080610e7a90612844565b915050610be9565b50919050565b6000600080516020612b53833981519152610ea281611de7565b60018054906000610eb283612844565b9190505550600154915060405180610140016040528083815260200188888080601f016020809104026020016040519081016040528093929190818152602001838380828437600092019190915250505090825250604080516020601f890181900481028201810190925287815291810191908890889081908401838280828437600092018290525093855250503360208085019190915260408085018490526060850184905260016080860181905260a0860185905260c086018a90528151808401835285815260e0909601959095528784526004825290922084518155918401519192830191610fa59150826128ab565b5060408201516002820190610fba90826128ab565b5060608201516003820180546001600160a01b0319166001600160a01b03909216919091179055608082015160a08301516001600160801b03918216600160801b929091169190910217600482015560c082015160058201805460e085015161ffff1990911692151561ff0019169290921761010092151583021790558201516006820155610120820151600782019061105490826128ab565b5050600b80546001810182556000919091527f0175b7a638427703f0dbe7bb9bbf987a2551717b34e79f33b5b1008d1fa01db9018390555060405182907f911967bf0c5c22bbd9617ba8d239d93af58bf1b5fd88af3e46a430927c50a90c906110c290889088903390612994565b60405180910390a25095945050505050565b60076020526000908152604090208054610b0890612795565b6004602052600090815260409020805460018201805491929161110f90612795565b80601f016020809104026020016040519081016040528092919081815260200182805461113b90612795565b80156111885780601f1061115d57610100808354040283529160200191611188565b820191906000526020600020905b81548152906001019060200180831161116b57829003601f168201915b50505050509080600201805461119d90612795565b80601f01602080910402602001604051908101604052809291908181526020018280546111c990612795565b80156112165780601f106111eb57610100808354040283529160200191611216565b820191906000526020600020905b8154815290600101906020018083116111f957829003601f168201915b505050600384015460048501546005860154600687015460078801805497986001600160a01b03909516976001600160801b038086169850600160801b909504909416955060ff80841695610100909404169391929161127590612795565b80601f01602080910402602001604051908101604052809291908181526020018280546112a190612795565b80156112ee5780601f106112c3576101008083540402835291602001916112ee565b820191906000526020600020905b8154815290600101906020018083116112d157829003601f168201915b505050505090508a565b6000918252602082815260408084206001600160a01b0393909316845291905290205460ff1690565b600080516020612b7383398151915261133981611de7565b6000838360405161134b9291906129c0565b60405180910390209050600080516020612b9383398151915281036113d257611382600080516020612b9383398151915288611df4565b600c80546001810182556000919091527fdf6966c971051c3d54ec59162606531493a51404a002842f56009d7e5cf4a8c70180546001600160a01b0319166001600160a01b03891617905561147c565b600080516020612b53833981519152810361144f576113ff600080516020612b5383398151915288611df4565b600d80546001810182556000919091527fd7b6990105719101dabeb77144f2a3385c8033acd3af97e9423a695e81ad1eb50180546001600160a01b0319166001600160a01b03891617905561147c565b600080516020612b73833981519152810361147c5761147c600080516020612b7383398151915288611df4565b6001600160a01b038716600090815260086020526040902061149f8486836129d0565b506001600160a01b03871660009081526007602052604090206114c38688836129d0565b5050505050505050565b60606000805b600b548110156115845760046000600b83815481106114f4576114f461282e565b6000918252602080832090910154835282019290925260400190206005015460ff16801561155f575060046000600b83815481106115345761153461282e565b9060005260206000200154815260200190815260200160002060050160019054906101000a900460ff165b15611572578161156e81612844565b9250505b8061157c81612844565b9150506114d3565b5060008167ffffffffffffffff8111156115a0576115a0612818565b6040519080825280602002602001820160405280156115c9578160200160208202803683370190505b5090506000805b600b548110156116bc5760046000600b83815481106115f1576115f161282e565b6000918252602080832090910154835282019290925260400190206005015460ff16801561165c575060046000600b83815481106116315761163161282e565b9060005260206000200154815260200190815260200160002060050160019054906101000a900460ff165b156116aa57600b81815481106116745761167461282e565b90600052602060002001548383815181106116915761169161282e565b6020908102919091010152816116a681612844565b9250505b806116b481612844565b9150506115d0565b50909392505050565b600080516020612b538339815191526116dd81611de7565b600084815260046020526040902060038101546001600160a01b031633146117335760405162461bcd60e51b81526020600482015260096024820152682737ba1037bbb732b960b91b6044820152606401610800565b600581015460ff166117705760405162461bcd60e51b815260206004820152600660248201526510db1bdcd95960d21b6044820152606401610800565b6005810154610100900460ff16156117bb5760405162461bcd60e51b815260206004820152600e60248201526d416c72656164792061637469766560901b6044820152606401610800565b60058101805461ff0019166101001790556004810180546001600160801b0342166fffffffffffffffffffffffffffffffff19909116179055600781016118038486836129d0565b50847f920d0144e52dda17e45e15715c58ce638bcc53b5abfb807a7efb63fb452d578242868660405161183893929190612a90565b60405180910390a25050505050565b600080516020612b5383398151915261185f81611de7565b600082815260046020526040902060038101546001600160a01b031633146118b55760405162461bcd60e51b81526020600482015260096024820152682737ba1037bbb732b960b91b6044820152606401610800565b60058101805460ff191690556004810180546001600160801b03908116600160801b42928316021790915560405190815283907fd2fe606d6e5a1d7a66766fa1df5b7868957cdeb3e929db537e6cea563a79e8e69060200160405180910390a2505050565b600080516020612b9383398151915261193281611de7565b6000848152600460205260409020600581015460ff1661197d5760405162461bcd60e51b815260206004820152600660248201526510db1bdcd95960d21b6044820152606401610800565b33600090815260066020908152604080832088845290915290205460ff16156119dd5760405162461bcd60e51b815260206004820152601260248201527120b63932b0b23c9031b432b1b5b2b21034b760711b6044820152606401610800565b3360008181526006602090815260408083208984528252808320805460ff1916600190811790915560058352818420805480830182559085528385200180546001600160a01b03191686179055848452600a835281842080549182018155845291909220018790555186907f58db8ff11b1f2ad89b5a611a7f0c48c73c8579db530ad0fd39df6523bc86726190611a779042815260200190565b60405180910390a35050505050565b60056020528160005260406000208181548110611aa257600080fd5b6000918252602090912001546001600160a01b03169150829050565b600082815260208190526040902060010154611ad981611de7565b61078f8383611e78565b3360009081526008602052604090208054611afd90612795565b159050611b415760405162461bcd60e51b8152602060048201526012602482015271105b1c9958591e481c9959da5cdd195c995960721b6044820152606401610800565b60008484604051611b539291906129c0565b60405180910390209050600080516020612b938339815191528103611c0d57611b8a600080516020612b9383398151915233611df4565b604080518082018252600781526614d5155111539560ca1b60208083019190915233600090815260089091529190912090611bc590826128ab565b50600c80546001810182556000919091527fdf6966c971051c3d54ec59162606531493a51404a002842f56009d7e5cf4a8c70180546001600160a01b03191633179055611d8b565b600080516020612b538339815191528103611cbf57611c3a600080516020612b5383398151915233611df4565b6040805180820182526009815268282927a322a9a9a7a960b91b60208083019190915233600090815260089091529190912090611c7790826128ab565b50600d80546001810182556000919091527fd7b6990105719101dabeb77144f2a3385c8033acd3af97e9423a695e81ad1eb50180546001600160a01b03191633179055611d8b565b600080516020612b738339815191528103611d8b576002548383604051611ce79291906129c0565b604051809103902014611d2d5760405162461bcd60e51b815260206004820152600e60248201526d125b9d985b1a59081cd958dc995d60921b6044820152606401610800565b611d38600033611df4565b611d50600080516020612b7383398151915233611df4565b604080518082018252600581526420a226a4a760d91b60208083019190915233600090815260089091529190912090611d8990826128ab565b505b3360009081526007602052604090206114c38789836129d0565b600080516020612b73833981519152611dbd81611de7565b6001600160a01b0384166000908152600760205260409020611de08385836129d0565b5050505050565b611df18133611edd565b50565b611dfe82826112f8565b610813576000828152602081815260408083206001600160a01b03851684529091529020805460ff19166001179055611e343390565b6001600160a01b0316816001600160a01b0316837f2f8788117e7eff1d82e926ec794901d17c78024a50270940304540a733656f0d60405160405180910390a45050565b611e8282826112f8565b15610813576000828152602081815260408083206001600160a01b0385168085529252808320805460ff1916905551339285917ff6391f5c32d9c69d2a47ea670b442974b53935d1edc7fd64eb21e047a839171b9190a45050565b611ee782826112f8565b61081357611ef481611f36565b611eff836020611f48565b604051602001611f10929190612ab3565b60408051601f198184030181529082905262461bcd60e51b8252610800916004016123e4565b60606105cb6001600160a01b03831660145b60606000611f578360026127df565b611f62906002612b28565b67ffffffffffffffff811115611f7a57611f7a612818565b6040519080825280601f01601f191660200182016040528015611fa4576020820181803683370190505b509050600360fc1b81600081518110611fbf57611fbf61282e565b60200101906001600160f81b031916908160001a905350600f60fb1b81600181518110611fee57611fee61282e565b60200101906001600160f81b031916908160001a90535060006120128460026127df565b61201d906001612b28565b90505b6001811115612095576f181899199a1a9b1b9c1cb0b131b232b360811b85600f16601081106120515761205161282e565b1a60f81b8282815181106120675761206761282e565b60200101906001600160f81b031916908160001a90535060049490941c9361208e81612b3b565b9050612020565b508315610ae85760405162461bcd60e51b815260206004820181905260248201527f537472696e67733a20686578206c656e67746820696e73756666696369656e746044820152606401610800565b604080516101408101825260008082526060602083018190529282018390528282018190526080820181905260a0820181905260c0820181905260e0820181905261010082015261012081019190915290565b80356001600160a01b038116811461214e57600080fd5b919050565b6000806040838503121561216657600080fd5b61216f83612137565b91506020830135801515811461218457600080fd5b809150509250929050565b6000602082840312156121a157600080fd5b81356001600160e01b031981168114610ae857600080fd5b6000602082840312156121cb57600080fd5b610ae882612137565b6020808252825182820181905260009190848201906040850190845b8181101561220c578351835292840192918401916001016121f0565b50909695505050505050565b6020808252825182820181905260009190848201906040850190845b8181101561220c5783516001600160a01b031683529284019291840191600101612234565b60006020828403121561226b57600080fd5b5035919050565b6000806040838503121561228557600080fd5b8235915061229560208401612137565b90509250929050565b60005b838110156122b95781810151838201526020016122a1565b50506000910152565b600081518084526122da81602086016020860161229e565b601f01601f19169290920160200192915050565b600061014082518452602083015181602086015261230e828601826122c2565b9150506040830151848203604086015261232882826122c2565b915050606083015161234560608601826001600160a01b03169052565b50608083015161236060808601826001600160801b03169052565b5060a083015161237b60a08601826001600160801b03169052565b5060c083015161238f60c086018215159052565b5060e08301516123a360e086018215159052565b50610100838101519085015261012080840151858303828701526123c783826122c2565b9695505050505050565b602081526000610ae860208301846122ee565b602081526000610ae860208301846122c2565b6000602080830181845280855180835260408601915060408160051b870101925083870160005b8281101561244c57603f1988860301845261243a8583516122ee565b9450928501929085019060010161241e565b5092979650505050505050565b60008083601f84011261246b57600080fd5b50813567ffffffffffffffff81111561248357600080fd5b60208301915083602082850101111561249b57600080fd5b9250929050565b6000806000806000606086880312156124ba57600080fd5b853567ffffffffffffffff808211156124d257600080fd5b6124de89838a01612459565b909750955060208801359150808211156124f757600080fd5b5061250488828901612459565b96999598509660400135949350505050565b60006101408c83528060208401526125308184018d6122c2565b90508281036040840152612544818c6122c2565b6001600160a01b038b1660608501526001600160801b038a81166080860152891660a085015287151560c085015286151560e08501526101008401869052838103610120850152905061259781856122c2565b9d9c50505050505050505050505050565b6000806000806000606086880312156125c057600080fd5b6125c986612137565b9450602086013567ffffffffffffffff808211156125e657600080fd5b6125f289838a01612459565b9096509450604088013591508082111561260b57600080fd5b5061261888828901612459565b969995985093965092949392505050565b60008060006040848603121561263e57600080fd5b83359250602084013567ffffffffffffffff81111561265c57600080fd5b61266886828701612459565b9497909650939450505050565b6000806040838503121561268857600080fd5b61269183612137565b946020939093013593505050565b600080604083850312156126b257600080fd5b50508035926020909101359150565b600080600080600080606087890312156126da57600080fd5b863567ffffffffffffffff808211156126f257600080fd5b6126fe8a838b01612459565b9098509650602089013591508082111561271757600080fd5b6127238a838b01612459565b9096509450604089013591508082111561273c57600080fd5b5061274989828a01612459565b979a9699509497509295939492505050565b60008060006040848603121561277057600080fd5b61277984612137565b9250602084013567ffffffffffffffff81111561265c57600080fd5b600181811c908216806127a957607f821691505b602082108103610e8257634e487b7160e01b600052602260045260246000fd5b634e487b7160e01b600052601160045260246000fd5b80820281158282048414176105cb576105cb6127c9565b60008261281357634e487b7160e01b600052601260045260246000fd5b500490565b634e487b7160e01b600052604160045260246000fd5b634e487b7160e01b600052603260045260246000fd5b600060018201612856576128566127c9565b5060010190565b601f82111561078f57600081815260208120601f850160051c810160208610156128845750805b601f850160051c820191505b818110156128a357828155600101612890565b505050505050565b815167ffffffffffffffff8111156128c5576128c5612818565b6128d9816128d38454612795565b8461285d565b602080601f83116001811461290e57600084156128f65750858301515b600019600386901b1c1916600185901b1785556128a3565b600085815260208120601f198616915b8281101561293d5788860151825594840194600190910190840161291e565b508582101561295b5787850151600019600388901b60f8161c191681555b5050505050600190811b01905550565b81835281816020850137506000828201602090810191909152601f909101601f19169091010190565b6040815260006129a860408301858761296b565b905060018060a01b0383166020830152949350505050565b8183823760009101908152919050565b67ffffffffffffffff8311156129e8576129e8612818565b6129fc836129f68354612795565b8361285d565b6000601f841160018114612a305760008515612a185750838201355b600019600387901b1c1916600186901b178355611de0565b600083815260209020601f19861690835b82811015612a615786850135825560209485019460019092019101612a41565b5086821015612a7e5760001960f88860031b161c19848701351681555b505060018560011b0183555050505050565b838152604060208201526000612aaa60408301848661296b565b95945050505050565b7f416363657373436f6e74726f6c3a206163636f756e7420000000000000000000815260008351612aeb81601785016020880161229e565b7001034b99036b4b9b9b4b733903937b6329607d1b6017918401918201528351612b1c81602884016020880161229e565b01602801949350505050565b808201808211156105cb576105cb6127c9565b600081612b4a57612b4a6127c9565b50600019019056fe3d1f49bb1f05140ce6d8662d97adf1436b792f39dc13288d9dca5c7b789865ebdf8b4c520ffe197c5343c6f5aec59570151ef9a492f2c624fd45ddde6135ec42c951d7098b66ba0b8b77265b6e9cf0e187d73125a42bcd0061b09a68be421810a2646970667358221220f126aa8e515324adaed9e11581198459dcc1db85e7e2ee2b6bd393a1eb5464c364736f6c63430008130033",
  "immutableReferences": {},
  "source": "// SPDX-License-Identifier: MIT\npragma solidity ^0.8.19;\n\nimport \"@openzeppelin/contracts/access/AccessControl.sol\";\nimport \"@openzeppelin/contracts/utils/cryptography/ECDSA.sol\";\n\n/**\n * @title AttendanceManager\n * @dev Decentralized attendance tracking with role-based access control.\n */\ncontract AttendanceManager is AccessControl {\n    using ECDSA for bytes32;\n\n    bytes32 public constant ADMIN_ROLE     = keccak256(\"ADMIN\");\n    bytes32 public constant PROFESSOR_ROLE = keccak256(\"PROFESSOR\");\n    bytes32 public constant STUDENT_ROLE   = keccak256(\"STUDENT\");\n\n    struct Session {\n        uint256 id;\n        string  courseId;\n        string  courseName;\n        address professor;\n        uint128 openedAt;     // Activation time (0 if not active)\n        uint128 closedAt;\n        bool    isOpen;       // If the session is not permanently closed\n        bool    isActivated;  // If the professor has started the GPS geofence\n        uint256 duration;     // In minutes\n        string  locationHash; // GPS anchor data\n    }\n\n    uint256 public sessionCount;\n    bytes32 public setupSecretHash;\n    address public gpsSigner;\n\n    mapping(uint256 => Session) public sessions;\n    mapping(uint256 => address[]) public sessionAttendees;\n    mapping(address => mapping(uint256 => bool)) public hasCheckedIn;\n    mapping(address => string) public userNames;\n    mapping(address => string) public userRole;\n    mapping(address => bool) public blockedUsers;\n    mapping(address => uint256[]) private _studentAttendance;\n    uint256[] private _allSessionIds;\n    address[] private _allStudents;\n    address[] private _allProfessors;\n\n    event SessionOpened(uint256 indexed sessionId, string courseName, address professor);\n    event SessionActivated(uint256 indexed sessionId, uint256 timestamp, string locationHash);\n    event SessionClosed(uint256 indexed sessionId, uint256 timestamp);\n    event AttendanceMarked(uint256 indexed sessionId, address indexed student, uint256 timestamp);\n\n    constructor(address admin, bytes32 _setupSecretHash) {\n        _grantRole(DEFAULT_ADMIN_ROLE, admin);\n        _grantRole(ADMIN_ROLE, admin);\n        userNames[admin] = \"System Admin\";\n        userRole[admin]  = \"ADMIN\";\n        setupSecretHash = _setupSecretHash;\n    }\n\n    // --- Onboarding ---\n    function onboard(string calldata name, string calldata role, string calldata secret) external {\n        require(bytes(userRole[msg.sender]).length == 0, \"Already registered\");\n        bytes32 roleHash = keccak256(bytes(role));\n        \n        if (roleHash == STUDENT_ROLE) {\n            _grantRole(STUDENT_ROLE, msg.sender);\n            userRole[msg.sender] = \"STUDENT\";\n            _allStudents.push(msg.sender);\n        } else if (roleHash == PROFESSOR_ROLE) {\n            _grantRole(PROFESSOR_ROLE, msg.sender);\n            userRole[msg.sender] = \"PROFESSOR\";\n            _allProfessors.push(msg.sender);\n        } else if (roleHash == ADMIN_ROLE) {\n            require(keccak256(bytes(secret)) == setupSecretHash, \"Invalid secret\");\n            _grantRole(DEFAULT_ADMIN_ROLE, msg.sender);\n            _grantRole(ADMIN_ROLE, msg.sender);\n            userRole[msg.sender] = \"ADMIN\";\n        }\n        userNames[msg.sender] = name;\n    }\n\n    function setGpsSigner(address _signer) external onlyRole(ADMIN_ROLE) {\n        gpsSigner = _signer;\n    }\n\n    function setUserName(address user, string calldata name) external onlyRole(ADMIN_ROLE) {\n        userNames[user] = name;\n    }\n\n    function setBlocked(address user, bool blocked) external onlyRole(ADMIN_ROLE) {\n        blockedUsers[user] = blocked;\n    }\n\n    function provisionUser(address user, string calldata name, string calldata role) external onlyRole(ADMIN_ROLE) {\n        bytes32 roleHash = keccak256(bytes(role));\n        if (roleHash == STUDENT_ROLE) {\n            _grantRole(STUDENT_ROLE, user);\n            _allStudents.push(user);\n        } else if (roleHash == PROFESSOR_ROLE) {\n            _grantRole(PROFESSOR_ROLE, user);\n            _allProfessors.push(user);\n        } else if (roleHash == ADMIN_ROLE) {\n            _grantRole(ADMIN_ROLE, user);\n        }\n        \n        userRole[user] = role;\n        userNames[user] = name;\n    }\n\n    // --- Professor Logic ---\n\n    function openSession(\n        string calldata courseId,\n        string calldata courseName,\n        uint256 duration\n    ) external onlyRole(PROFESSOR_ROLE) returns (uint256 sessionId) {\n        sessionCount++;\n        sessionId = sessionCount;\n\n        sessions[sessionId] = Session({\n            id:           sessionId,\n            courseId:     courseId,\n            courseName:   courseName,\n            professor:    msg.sender,\n            openedAt:     0,\n            closedAt:     0,\n            isOpen:       true,\n            isActivated:  false,\n            duration:     duration,\n            locationHash: \"\"\n        });\n\n        _allSessionIds.push(sessionId);\n        emit SessionOpened(sessionId, courseName, msg.sender);\n    }\n\n    function activateSession(uint256 sessionId, string calldata locationHash) external onlyRole(PROFESSOR_ROLE) {\n        Session storage s = sessions[sessionId];\n        require(s.professor == msg.sender, \"Not owner\");\n        require(s.isOpen, \"Closed\");\n        require(!s.isActivated, \"Already active\");\n\n        s.isActivated = true;\n        s.openedAt = uint128(block.timestamp);\n        s.locationHash = locationHash;\n\n        emit SessionActivated(sessionId, block.timestamp, locationHash);\n    }\n\n    function closeSession(uint256 sessionId) external onlyRole(PROFESSOR_ROLE) {\n        Session storage s = sessions[sessionId];\n        require(s.professor == msg.sender, \"Not owner\");\n        s.isOpen = false;\n        s.closedAt = uint128(block.timestamp);\n        emit SessionClosed(sessionId, block.timestamp);\n    }\n\n    // --- Student Logic ---\n\n    function checkIn(uint256 sessionId, bytes calldata /* signature */) external onlyRole(STUDENT_ROLE) {\n        Session storage s = sessions[sessionId];\n        require(s.isOpen, \"Closed\");\n        require(!hasCheckedIn[msg.sender][sessionId], \"Already checked in\");\n\n        // BYPASSING SIGNATURE VERIFICATION FOR TESTING\n        /*\n        bytes32 messageHash = keccak256(abi.encodePacked(sessionId, msg.sender));\n        bytes32 ethSignedMessageHash = messageHash.toEthSignedMessageHash();\n        require(ethSignedMessageHash.recover(signature) == gpsSigner, \"Invalid GPS signature\");\n        */\n\n        hasCheckedIn[msg.sender][sessionId] = true;\n        sessionAttendees[sessionId].push(msg.sender);\n        _studentAttendance[msg.sender].push(sessionId);\n\n        emit AttendanceMarked(sessionId, msg.sender, block.timestamp);\n    }\n\n    // --- Views ---\n\n    function getSession(uint256 id) external view returns (Session memory) {\n        return sessions[id];\n    }\n\n    function getAllSessions() external view returns (Session[] memory) {\n        Session[] memory all = new Session[](_allSessionIds.length);\n        for (uint256 i = 0; i < _allSessionIds.length; i++) {\n            all[i] = sessions[_allSessionIds[i]];\n        }\n        return all;\n    }\n\n    function getActiveSessions() external view returns (uint256[] memory) {\n        uint256 count = 0;\n        for (uint256 i = 0; i < _allSessionIds.length; i++) {\n            if (sessions[_allSessionIds[i]].isOpen && sessions[_allSessionIds[i]].isActivated) {\n                count++;\n            }\n        }\n        \n        uint256[] memory activeIds = new uint256[](count);\n        uint256 index = 0;\n        for (uint256 i = 0; i < _allSessionIds.length; i++) {\n            if (sessions[_allSessionIds[i]].isOpen && sessions[_allSessionIds[i]].isActivated) {\n                activeIds[index] = _allSessionIds[i];\n                index++;\n            }\n        }\n        return activeIds;\n    }\n\n    function getSessionAttendees(uint256 sessionId) external view returns (address[] memory) {\n        return sessionAttendees[sessionId];\n    }\n\n    function getStudentAttendance(address student) external view returns (uint256[] memory) {\n        return _studentAttendance[student];\n    }\n\n    function getAttendanceRate(address student) public view returns (uint256) {\n        if (sessionCount == 0) return 0;\n        uint256 attended = _studentAttendance[student].length;\n        return (attended * 100) / sessionCount;\n    }\n\n    function getRegisteredStudents() external view returns (address[] memory) {\n        return _allStudents;\n    }\n\n    function getRegisteredProfessors() external view returns (address[] memory) {\n        return _allProfessors;\n    }\n}\n",
  "sourcePath": "C:\\Users\\Invictus\\Desktop\\projet2\\chainpresence\\contracts\\AttendanceManager.sol",
  "compiler": {
    "name": "solc",
    "version": "0.8.19+commit.7dd6d404.Emscripten.clang"
  },
  "schemaVersion": "3.4.16",
  "updatedAt": "2026-05-14T15:20:54.677Z",
  "networkType": "ethereum",
  "devdoc": {
    "details": "Decentralized attendance tracking with role-based access control.",
    "events": {
      "RoleAdminChanged(bytes32,bytes32,bytes32)": {
        "details": "Emitted when `newAdminRole` is set as ``role``'s admin role, replacing `previousAdminRole` `DEFAULT_ADMIN_ROLE` is the starting admin for all roles, despite {RoleAdminChanged} not being emitted signaling this. _Available since v3.1._"
      },
      "RoleGranted(bytes32,address,address)": {
        "details": "Emitted when `account` is granted `role`. `sender` is the account that originated the contract call, an admin role bearer except when using {AccessControl-_setupRole}."
      },
      "RoleRevoked(bytes32,address,address)": {
        "details": "Emitted when `account` is revoked `role`. `sender` is the account that originated the contract call:   - if using `revokeRole`, it is the admin role bearer   - if using `renounceRole`, it is the role bearer (i.e. `account`)"
      }
    },
    "kind": "dev",
    "methods": {
      "getRoleAdmin(bytes32)": {
        "details": "Returns the admin role that controls `role`. See {grantRole} and {revokeRole}. To change a role's admin, use {_setRoleAdmin}."
      },
      "grantRole(bytes32,address)": {
        "details": "Grants `role` to `account`. If `account` had not been already granted `role`, emits a {RoleGranted} event. Requirements: - the caller must have ``role``'s admin role. May emit a {RoleGranted} event."
      },
      "hasRole(bytes32,address)": {
        "details": "Returns `true` if `account` has been granted `role`."
      },
      "renounceRole(bytes32,address)": {
        "details": "Revokes `role` from the calling account. Roles are often managed via {grantRole} and {revokeRole}: this function's purpose is to provide a mechanism for accounts to lose their privileges if they are compromised (such as when a trusted device is misplaced). If the calling account had been revoked `role`, emits a {RoleRevoked} event. Requirements: - the caller must be `account`. May emit a {RoleRevoked} event."
      },
      "revokeRole(bytes32,address)": {
        "details": "Revokes `role` from `account`. If `account` had been granted `role`, emits a {RoleRevoked} event. Requirements: - the caller must have ``role``'s admin role. May emit a {RoleRevoked} event."
      },
      "supportsInterface(bytes4)": {
        "details": "See {IERC165-supportsInterface}."
      }
    },
    "title": "AttendanceManager",
    "version": 1
  },
  "userdoc": {
    "kind": "user",
    "methods": {},
    "version": 1
  }
}